{
  "contractName": "BuildCollective",
  "abi": [
    {
      "anonymous": false,
      "inputs": [
        {
          "indexed": true,
          "internalType": "address",
          "name": "userAddress",
          "type": "address"
        },
        {
          "components": [
            {
              "internalType": "string",
              "name": "username",
              "type": "string"
            },
            {
              "internalType": "uint256",
              "name": "balance",
              "type": "uint256"
            },
            {
              "internalType": "bool",
              "name": "registered",
              "type": "bool"
            }
          ],
          "indexed": true,
          "internalType": "struct BuildCollective.User",
          "name": "user",
          "type": "tuple"
        }
      ],
      "name": "UserSignedUp",
      "type": "event"
    },
    {
      "constant": true,
      "inputs": [],
      "name": "owner",
      "outputs": [
        {
          "internalType": "address",
          "name": "",
          "type": "address"
        }
      ],
      "payable": false,
      "stateMutability": "view",
      "type": "function"
    },
    {
      "constant": true,
      "inputs": [
        {
          "internalType": "address",
          "name": "",
          "type": "address"
        }
      ],
      "name": "users",
      "outputs": [
        {
          "internalType": "string",
          "name": "username",
          "type": "string"
        },
        {
          "internalType": "uint256",
          "name": "balance",
          "type": "uint256"
        },
        {
          "internalType": "bool",
          "name": "registered",
          "type": "bool"
        }
      ],
      "payable": false,
      "stateMutability": "view",
      "type": "function"
    },
    {
      "constant": true,
      "inputs": [
        {
          "internalType": "address",
          "name": "userAddress",
          "type": "address"
        }
      ],
      "name": "user",
      "outputs": [
        {
          "components": [
            {
              "internalType": "string",
              "name": "username",
              "type": "string"
            },
            {
              "internalType": "uint256",
              "name": "balance",
              "type": "uint256"
            },
            {
              "internalType": "bool",
              "name": "registered",
              "type": "bool"
            }
          ],
          "internalType": "struct BuildCollective.User",
          "name": "",
          "type": "tuple"
        }
      ],
      "payable": false,
      "stateMutability": "view",
      "type": "function"
    },
    {
      "constant": false,
      "inputs": [
        {
          "internalType": "string",
          "name": "username",
          "type": "string"
        }
      ],
      "name": "signUp",
      "outputs": [
        {
          "components": [
            {
              "internalType": "string",
              "name": "username",
              "type": "string"
            },
            {
              "internalType": "uint256",
              "name": "balance",
              "type": "uint256"
            },
            {
              "internalType": "bool",
              "name": "registered",
              "type": "bool"
            }
          ],
          "internalType": "struct BuildCollective.User",
          "name": "",
          "type": "tuple"
        }
      ],
      "payable": false,
      "stateMutability": "nonpayable",
      "type": "function"
    },
    {
      "constant": false,
      "inputs": [
        {
          "internalType": "uint256",
          "name": "amount",
          "type": "uint256"
        }
      ],
      "name": "addBalance",
      "outputs": [
        {
          "internalType": "bool",
          "name": "",
          "type": "bool"
        }
      ],
      "payable": false,
      "stateMutability": "nonpayable",
      "type": "function"
    }
  ],
  "bytecode": "0x6080604052336000806101000a81548173ffffffffffffffffffffffffffffffffffffffff021916908373ffffffffffffffffffffffffffffffffffffffff16021790555034801561005057600080fd5b50610c48806100606000396000f3fe608060405234801561001057600080fd5b50600436106100575760003560e01c806381e7e20e1461005c5780638da5cb5b1461008c578063a87430ba146100aa578063adcfb4fc146100dc578063d91921ed1461010c575b600080fd5b610076600480360361007191908101906106a4565b61013c565b6040516100839190610a1c565b60405180910390f35b61009461025c565b6040516100a191906109a8565b60405180910390f35b6100c460048036036100bf91908101906106a4565b610281565b6040516100d3939291906109de565b60405180910390f35b6100f660048036036100f191908101906106cd565b610350565b6040516101039190610a1c565b60405180910390f35b6101266004803603610121919081019061070e565b6104aa565b60405161013391906109c3565b60405180910390f35b61014461055e565b600160008373ffffffffffffffffffffffffffffffffffffffff1673ffffffffffffffffffffffffffffffffffffffff168152602001908152602001600020604051806060016040529081600082018054600181600116156101000203166002900480601f0160208091040260200160405190810160405280929190818152602001828054600181600116156101000203166002900480156102275780601f106101fc57610100808354040283529160200191610227565b820191906000526020600020905b81548152906001019060200180831161020a57829003601f168201915b50505050508152602001600182015481526020016002820160009054906101000a900460ff1615151515815250509050919050565b6000809054906101000a900473ffffffffffffffffffffffffffffffffffffffff1681565b6001602052806000526040600020600091509050806000018054600181600116156101000203166002900480601f01602080910402602001604051908101604052809291908181526020018280546001816001161561010002031660029004801561032d5780601f106103025761010080835404028352916020019161032d565b820191906000526020600020905b81548152906001019060200180831161031057829003601f168201915b5050505050908060010154908060020160009054906101000a900460ff16905083565b61035861055e565b600082511161036657600080fd5b60405180606001604052808381526020016000815260200160011515815250600160003373ffffffffffffffffffffffffffffffffffffffff1673ffffffffffffffffffffffffffffffffffffffff16815260200190815260200160002060008201518160000190805190602001906103e0929190610581565b506020820151816001015560408201518160020160006101000a81548160ff021916908315150217905550905050600160003373ffffffffffffffffffffffffffffffffffffffff1673ffffffffffffffffffffffffffffffffffffffff16815260200190815260200160002060405161045a9190610991565b60405180910390203373ffffffffffffffffffffffffffffffffffffffff167fc24de5261f8eff14607134de76bea692f6b10ab7b8b21d627fa4cd6347365b7460405160405180910390a3919050565b6000600160003373ffffffffffffffffffffffffffffffffffffffff1673ffffffffffffffffffffffffffffffffffffffff16815260200190815260200160002060020160009054906101000a900460ff1661050557600080fd5b81600160003373ffffffffffffffffffffffffffffffffffffffff1673ffffffffffffffffffffffffffffffffffffffff1681526020019081526020016000206001016000828254019250508190555060019050919050565b604051806060016040528060608152602001600081526020016000151581525090565b828054600181600116156101000203166002900490600052602060002090601f016020900481019282601f106105c257805160ff19168380011785556105f0565b828001600101855582156105f0579182015b828111156105ef5782518255916020019190600101906105d4565b5b5090506105fd9190610601565b5090565b61062391905b8082111561061f576000816000905550600101610607565b5090565b90565b60008135905061063581610bd7565b92915050565b600082601f83011261064c57600080fd5b813561065f61065a82610a6b565b610a3e565b9150808252602083016020830185838301111561067b57600080fd5b610686838284610b43565b50505092915050565b60008135905061069e81610bee565b92915050565b6000602082840312156106b657600080fd5b60006106c484828501610626565b91505092915050565b6000602082840312156106df57600080fd5b600082013567ffffffffffffffff8111156106f957600080fd5b6107058482850161063b565b91505092915050565b60006020828403121561072057600080fd5b600061072e8482850161068f565b91505092915050565b600061074383836107a8565b60208301905092915050565b600061075b8383610829565b905092915050565b600061076f8383610982565b60208301905092915050565b61078481610afb565b82525050565b61079381610b0d565b82525050565b6107a281610b0d565b82525050565b6107b181610b0d565b82525050565b60006107c282610aac565b6107cc8185610ab7565b93506107dc818560208601610b52565b6107e581610bb9565b840191505092915050565b60006107fb82610aac565b6108058185610ac8565b9350610815818560208601610b52565b61081e81610bb9565b840191505092915050565b600081546001811660008114610846576001811461086c576108b0565b607f60028304166108578187610ad9565b955060ff1983168652602086019350506108b0565b6002820461087a8187610ad9565b955061088585610a97565b60005b828110156108a757815481890152600182019150602081019050610888565b80880195505050505b505092915050565b600060608301600083015184820360008601526108d582826107b7565b91505060208301516108ea6020860182610964565b5060408301516108fd604086018261078a565b508091505092915050565b6000808301600080840161091c868261074f565b9550506001840154905061092f81610b9f565b6109398682610763565b9550506002840154905061094c81610b85565b6109568682610737565b955050849250505092915050565b61096d81610b39565b82525050565b61097c81610b39565b82525050565b61098b81610b39565b82525050565b600061099d8284610908565b915081905092915050565b60006020820190506109bd600083018461077b565b92915050565b60006020820190506109d86000830184610799565b92915050565b600060608201905081810360008301526109f881866107f0565b9050610a076020830185610973565b610a146040830184610799565b949350505050565b60006020820190508181036000830152610a3681846108b8565b905092915050565b6000604051905081810181811067ffffffffffffffff82111715610a6157600080fd5b8060405250919050565b600067ffffffffffffffff821115610a8257600080fd5b601f19601f8301169050602081019050919050565b60008190508160005260206000209050919050565b600081519050919050565b600082825260208201905092915050565b600082825260208201905092915050565b600081905092915050565b600060ff82169050919050565b6000819050919050565b6000610b0682610b19565b9050919050565b60008115159050919050565b600073ffffffffffffffffffffffffffffffffffffffff82169050919050565b6000819050919050565b82818337600083830152505050565b60005b83811015610b70578082015181840152602081019050610b55565b83811115610b7f576000848401525b50505050565b6000610b98610b9383610bca565b610ae4565b9050919050565b6000610bb2610bad83610bca565b610af1565b9050919050565b6000601f19601f8301169050919050565b60008160001c9050919050565b610be081610afb565b8114610beb57600080fd5b50565b610bf781610b39565b8114610c0257600080fd5b5056fea365627a7a723158205009136c047a156ae8bfd7b49d54a203e9a69922c09cfdb5f24f0d2e0bfa13646c6578706572696d656e74616cf564736f6c63430005100040",
  "source": "pragma solidity >=0.4.22 <0.9.0;\npragma experimental ABIEncoderV2;\n\nimport \"./Ownable.sol\";\n\ncontract BuildCollective is Ownable {\n  struct User {\n    string username;\n    uint256 balance;\n    bool registered;\n  }\n\n  mapping(address => User) public users;\n\n  event UserSignedUp(address indexed userAddress, User indexed user);\n\n  function user(address userAddress) public view returns (User memory) {\n    return users[userAddress];\n  }\n\n  function signUp(string memory username) public returns (User memory) {\n    require(bytes(username).length > 0);\n    users[msg.sender] = User(username, 0, true);\n    emit UserSignedUp(msg.sender, users[msg.sender]);\n  }\n\n  function addBalance(uint256 amount) public returns (bool) {\n    require(users[msg.sender].registered);\n    users[msg.sender].balance += amount;\n    return true;\n  }\n\n}\n",
  "sourcePath": "C:\\Users\\arzaigui\\Desktop\\DAAR_PROJECT_3-master\\contracts\\BuildCollective.sol",
  "compiler": {
    "name": "solc",
    "version": "0.5.16+commit.9c3226ce.Emscripten.clang"
  },
  "schemaVersion": "3.4.3",
  "updatedAt": "2021-11-28T19:42:31.117Z",
  "networkType": "ethereum",
  "devdoc": {
    "methods": {}
  },
  "userdoc": {
    "methods": {}
  }
}