{
  "contractName": "userProjects",
  "abi": [
    {
      "anonymous": false,
      "inputs": [
        {
          "indexed": true,
          "internalType": "address",
          "name": "userAddress",
          "type": "address"
        },
        {
          "components": [
            {
              "components": [
                {
                  "internalType": "string",
                  "name": "username",
                  "type": "string"
                },
                {
                  "internalType": "uint256",
                  "name": "balance",
                  "type": "uint256"
                },
                {
                  "internalType": "bool",
                  "name": "registered",
                  "type": "bool"
                }
              ],
              "internalType": "struct BuildCollective.User",
              "name": "owner",
              "type": "tuple"
            },
            {
              "internalType": "string",
              "name": "name",
              "type": "string"
            },
            {
              "internalType": "uint256",
              "name": "balance",
              "type": "uint256"
            },
            {
              "components": [
                {
                  "internalType": "string",
                  "name": "username",
                  "type": "string"
                },
                {
                  "internalType": "uint256",
                  "name": "balance",
                  "type": "uint256"
                },
                {
                  "internalType": "bool",
                  "name": "registered",
                  "type": "bool"
                }
              ],
              "internalType": "struct BuildCollective.User[]",
              "name": "contributers",
              "type": "tuple[]"
            }
          ],
          "indexed": true,
          "internalType": "struct userProjects.project",
          "name": "Project",
          "type": "tuple"
        }
      ],
      "name": "ProjectCreated",
      "type": "event"
    },
    {
      "anonymous": false,
      "inputs": [
        {
          "indexed": true,
          "internalType": "address",
          "name": "userAddress",
          "type": "address"
        },
        {
          "components": [
            {
              "internalType": "string",
              "name": "username",
              "type": "string"
            },
            {
              "internalType": "uint256",
              "name": "balance",
              "type": "uint256"
            },
            {
              "internalType": "bool",
              "name": "registered",
              "type": "bool"
            }
          ],
          "indexed": true,
          "internalType": "struct BuildCollective.User",
          "name": "user",
          "type": "tuple"
        }
      ],
      "name": "UserSignedUp",
      "type": "event"
    },
    {
      "anonymous": false,
      "inputs": [
        {
          "indexed": true,
          "internalType": "address",
          "name": "userAddress",
          "type": "address"
        },
        {
          "components": [
            {
              "internalType": "string",
              "name": "name",
              "type": "string"
            },
            {
              "internalType": "uint256",
              "name": "reward",
              "type": "uint256"
            },
            {
              "internalType": "bool",
              "name": "fix",
              "type": "bool"
            }
          ],
          "indexed": true,
          "internalType": "struct userProjects.bounty",
          "name": "Bounty",
          "type": "tuple"
        }
      ],
      "name": "bountyCreated",
      "type": "event"
    },
    {
      "constant": true,
      "inputs": [
        {
          "internalType": "address",
          "name": "",
          "type": "address"
        }
      ],
      "name": "bounties",
      "outputs": [
        {
          "internalType": "string",
          "name": "name",
          "type": "string"
        },
        {
          "internalType": "uint256",
          "name": "reward",
          "type": "uint256"
        },
        {
          "internalType": "bool",
          "name": "fix",
          "type": "bool"
        }
      ],
      "payable": false,
      "stateMutability": "view",
      "type": "function"
    },
    {
      "constant": true,
      "inputs": [
        {
          "internalType": "uint256",
          "name": "",
          "type": "uint256"
        }
      ],
      "name": "bounties_list",
      "outputs": [
        {
          "internalType": "string",
          "name": "name",
          "type": "string"
        },
        {
          "internalType": "uint256",
          "name": "reward",
          "type": "uint256"
        },
        {
          "internalType": "bool",
          "name": "fix",
          "type": "bool"
        }
      ],
      "payable": false,
      "stateMutability": "view",
      "type": "function"
    },
    {
      "constant": true,
      "inputs": [],
      "name": "owner",
      "outputs": [
        {
          "internalType": "address",
          "name": "",
          "type": "address"
        }
      ],
      "payable": false,
      "stateMutability": "view",
      "type": "function"
    },
    {
      "constant": true,
      "inputs": [
        {
          "internalType": "uint256",
          "name": "",
          "type": "uint256"
        }
      ],
      "name": "projects",
      "outputs": [
        {
          "components": [
            {
              "internalType": "string",
              "name": "username",
              "type": "string"
            },
            {
              "internalType": "uint256",
              "name": "balance",
              "type": "uint256"
            },
            {
              "internalType": "bool",
              "name": "registered",
              "type": "bool"
            }
          ],
          "internalType": "struct BuildCollective.User",
          "name": "owner",
          "type": "tuple"
        },
        {
          "internalType": "string",
          "name": "name",
          "type": "string"
        },
        {
          "internalType": "uint256",
          "name": "balance",
          "type": "uint256"
        }
      ],
      "payable": false,
      "stateMutability": "view",
      "type": "function"
    },
    {
      "constant": false,
      "inputs": [
        {
          "internalType": "string",
          "name": "username",
          "type": "string"
        }
      ],
      "name": "signUp",
      "outputs": [
        {
          "components": [
            {
              "internalType": "string",
              "name": "username",
              "type": "string"
            },
            {
              "internalType": "uint256",
              "name": "balance",
              "type": "uint256"
            },
            {
              "internalType": "bool",
              "name": "registered",
              "type": "bool"
            }
          ],
          "internalType": "struct BuildCollective.User",
          "name": "",
          "type": "tuple"
        }
      ],
      "payable": false,
      "stateMutability": "nonpayable",
      "type": "function"
    },
    {
      "constant": true,
      "inputs": [
        {
          "internalType": "address",
          "name": "userAddress",
          "type": "address"
        }
      ],
      "name": "user",
      "outputs": [
        {
          "components": [
            {
              "internalType": "string",
              "name": "username",
              "type": "string"
            },
            {
              "internalType": "uint256",
              "name": "balance",
              "type": "uint256"
            },
            {
              "internalType": "bool",
              "name": "registered",
              "type": "bool"
            }
          ],
          "internalType": "struct BuildCollective.User",
          "name": "",
          "type": "tuple"
        }
      ],
      "payable": false,
      "stateMutability": "view",
      "type": "function"
    },
    {
      "constant": true,
      "inputs": [
        {
          "internalType": "address",
          "name": "",
          "type": "address"
        }
      ],
      "name": "userprojects",
      "outputs": [
        {
          "components": [
            {
              "internalType": "string",
              "name": "username",
              "type": "string"
            },
            {
              "internalType": "uint256",
              "name": "balance",
              "type": "uint256"
            },
            {
              "internalType": "bool",
              "name": "registered",
              "type": "bool"
            }
          ],
          "internalType": "struct BuildCollective.User",
          "name": "owner",
          "type": "tuple"
        },
        {
          "internalType": "string",
          "name": "name",
          "type": "string"
        },
        {
          "internalType": "uint256",
          "name": "balance",
          "type": "uint256"
        }
      ],
      "payable": false,
      "stateMutability": "view",
      "type": "function"
    },
    {
      "constant": true,
      "inputs": [
        {
          "internalType": "address",
          "name": "",
          "type": "address"
        }
      ],
      "name": "users",
      "outputs": [
        {
          "internalType": "string",
          "name": "username",
          "type": "string"
        },
        {
          "internalType": "uint256",
          "name": "balance",
          "type": "uint256"
        },
        {
          "internalType": "bool",
          "name": "registered",
          "type": "bool"
        }
      ],
      "payable": false,
      "stateMutability": "view",
      "type": "function"
    },
    {
      "constant": false,
      "inputs": [
        {
          "internalType": "string",
          "name": "_name",
          "type": "string"
        },
        {
          "internalType": "address[]",
          "name": "_contributers_addresses",
          "type": "address[]"
        }
      ],
      "name": "createProject",
      "outputs": [],
      "payable": false,
      "stateMutability": "nonpayable",
      "type": "function"
    },
    {
      "constant": false,
      "inputs": [
        {
          "internalType": "uint256",
          "name": "reward",
          "type": "uint256"
        },
        {
          "internalType": "string",
          "name": "name",
          "type": "string"
        }
      ],
      "name": "CreateBounty",
      "outputs": [],
      "payable": true,
      "stateMutability": "payable",
      "type": "function"
    },
    {
      "constant": false,
      "inputs": [
        {
          "internalType": "address",
          "name": "_bounty",
          "type": "address"
        }
      ],
      "name": "Push_a_fix",
      "outputs": [
        {
          "internalType": "bool",
          "name": "",
          "type": "bool"
        }
      ],
      "payable": true,
      "stateMutability": "payable",
      "type": "function"
    },
    {
      "constant": false,
      "inputs": [
        {
          "internalType": "uint256",
          "name": "amount",
          "type": "uint256"
        }
      ],
      "name": "addBalance",
      "outputs": [
        {
          "internalType": "bool",
          "name": "",
          "type": "bool"
        }
      ],
      "payable": false,
      "stateMutability": "nonpayable",
      "type": "function"
    },
    {
      "constant": false,
      "inputs": [
        {
          "internalType": "uint256",
          "name": "spons_money",
          "type": "uint256"
        },
        {
          "internalType": "address[]",
          "name": "beneficiaries",
          "type": "address[]"
        }
      ],
      "name": "GiveMoney",
      "outputs": [
        {
          "internalType": "string[]",
          "name": "",
          "type": "string[]"
        }
      ],
      "payable": false,
      "stateMutability": "nonpayable",
      "type": "function"
    },
    {
      "constant": true,
      "inputs": [],
      "name": "whatAreUsersProjects",
      "outputs": [
        {
          "components": [
            {
              "components": [
                {
                  "internalType": "string",
                  "name": "username",
                  "type": "string"
                },
                {
                  "internalType": "uint256",
                  "name": "balance",
                  "type": "uint256"
                },
                {
                  "internalType": "bool",
                  "name": "registered",
                  "type": "bool"
                }
              ],
              "internalType": "struct BuildCollective.User",
              "name": "owner",
              "type": "tuple"
            },
            {
              "internalType": "string",
              "name": "name",
              "type": "string"
            },
            {
              "internalType": "uint256",
              "name": "balance",
              "type": "uint256"
            },
            {
              "components": [
                {
                  "internalType": "string",
                  "name": "username",
                  "type": "string"
                },
                {
                  "internalType": "uint256",
                  "name": "balance",
                  "type": "uint256"
                },
                {
                  "internalType": "bool",
                  "name": "registered",
                  "type": "bool"
                }
              ],
              "internalType": "struct BuildCollective.User[]",
              "name": "contributers",
              "type": "tuple[]"
            }
          ],
          "internalType": "struct userProjects.project",
          "name": "",
          "type": "tuple"
        }
      ],
      "payable": false,
      "stateMutability": "view",
      "type": "function"
    }
  ],
  "bytecode": "0x6080604052336000806101000a81548173ffffffffffffffffffffffffffffffffffffffff021916908373ffffffffffffffffffffffffffffffffffffffff16021790555034801561005057600080fd5b506129a3806100606000396000f3fe6080604052600436106100dd5760003560e01c8063a92f4b5d1161007f578063cdfbea5811610059578063cdfbea58146102f8578063d401c02814610337578063d478e9f114610376578063d91921ed1461039f576100dd565b8063a92f4b5d1461026f578063adcfb4fc1461028b578063ae951614146102c8576100dd565b80638da5cb5b116100bb5780638da5cb5b1461018957806398e71744146101b45780639c98983e146101f1578063a87430ba14610230576100dd565b8063107046bd146100e257806325adb7e11461012157806381e7e20e1461014c575b600080fd5b3480156100ee57600080fd5b5061010960048036036101049190810190611e63565b6103dc565b60405161011893929190612660565b60405180910390f35b34801561012d57600080fd5b5061013661057c565b60405161014391906126a5565b60405180910390f35b34801561015857600080fd5b50610173600480360361016e9190810190611d8d565b610880565b604051610180919061263e565b60405180910390f35b34801561019557600080fd5b5061019e6109a0565b6040516101ab91906125a8565b60405180910390f35b3480156101c057600080fd5b506101db60048036036101d69190810190611e8c565b6109c5565b6040516101e891906125c3565b60405180910390f35b3480156101fd57600080fd5b5061021860048036036102139190810190611d8d565b610bc3565b60405161022793929190612660565b60405180910390f35b34801561023c57600080fd5b5061025760048036036102529190810190611d8d565b610d56565b60405161026693929190612600565b60405180910390f35b61028960048036036102849190810190611ee0565b610e25565b005b34801561029757600080fd5b506102b260048036036102ad9190810190611db6565b610fdb565b6040516102bf919061263e565b60405180910390f35b6102e260048036036102dd9190810190611d8d565b611135565b6040516102ef91906125e5565b60405180910390f35b34801561030457600080fd5b5061031f600480360361031a9190810190611d8d565b61127f565b60405161032e93929190612600565b60405180910390f35b34801561034357600080fd5b5061035e60048036036103599190810190611e63565b61134e565b60405161036d93929190612600565b60405180910390f35b34801561038257600080fd5b5061039d60048036036103989190810190611df7565b61142a565b005b3480156103ab57600080fd5b506103c660048036036103c19190810190611e63565b611831565b6040516103d391906125e5565b60405180910390f35b600681815481106103e957fe5b906000526020600020906006020160009150905080600001604051806060016040529081600082018054600181600116156101000203166002900480601f0160208091040260200160405190810160405280929190818152602001828054600181600116156101000203166002900480156104a55780601f1061047a576101008083540402835291602001916104a5565b820191906000526020600020905b81548152906001019060200180831161048857829003601f168201915b50505050508152602001600182015481526020016002820160009054906101000a900460ff16151515158152505090806003018054600181600116156101000203166002900480601f01602080910402602001604051908101604052809291908181526020018280546001816001161561010002031660029004801561056c5780601f106105415761010080835404028352916020019161056c565b820191906000526020600020905b81548152906001019060200180831161054f57829003601f168201915b5050505050908060040154905083565b61058461188c565b600360003373ffffffffffffffffffffffffffffffffffffffff1673ffffffffffffffffffffffffffffffffffffffff16815260200190815260200160002060405180608001604052908160008201604051806060016040529081600082018054600181600116156101000203166002900480601f0160208091040260200160405190810160405280929190818152602001828054600181600116156101000203166002900480156106775780601f1061064c57610100808354040283529160200191610677565b820191906000526020600020905b81548152906001019060200180831161065a57829003601f168201915b50505050508152602001600182015481526020016002820160009054906101000a900460ff1615151515815250508152602001600382018054600181600116156101000203166002900480601f0160208091040260200160405190810160405280929190818152602001828054600181600116156101000203166002900480156107425780601f1061071757610100808354040283529160200191610742565b820191906000526020600020905b81548152906001019060200180831161072557829003601f168201915b505050505081526020016004820154815260200160058201805480602002602001604051908101604052809291908181526020016000905b828210156108735783829060005260206000209060030201604051806060016040529081600082018054600181600116156101000203166002900480601f0160208091040260200160405190810160405280929190818152602001828054600181600116156101000203166002900480156108365780601f1061080b57610100808354040283529160200191610836565b820191906000526020600020905b81548152906001019060200180831161081957829003601f168201915b50505050508152602001600182015481526020016002820160009054906101000a900460ff1615151515815250508152602001906001019061077a565b5050505081525050905090565b6108886118ba565b600160008373ffffffffffffffffffffffffffffffffffffffff1673ffffffffffffffffffffffffffffffffffffffff168152602001908152602001600020604051806060016040529081600082018054600181600116156101000203166002900480601f01602080910402602001604051908101604052809291908181526020018280546001816001161561010002031660029004801561096b5780601f106109405761010080835404028352916020019161096b565b820191906000526020600020905b81548152906001019060200180831161094e57829003601f168201915b50505050508152602001600182015481526020016002820160009054906101000a900460ff1615151515815250509050919050565b6000809054906101000a900473ffffffffffffffffffffffffffffffffffffffff1681565b606060008251905060606000809050600080905083811015610bb857600460008783815181106109f157fe5b602002602001015173ffffffffffffffffffffffffffffffffffffffff1673ffffffffffffffffffffffffffffffffffffffff16815260200190815260200160002060009054906101000a900460ff16610a4a57600080fd5b8660016000888481518110610a5b57fe5b602002602001015173ffffffffffffffffffffffffffffffffffffffff1673ffffffffffffffffffffffffffffffffffffffff1681526020019081526020016000206001018190555060016000878381518110610ab457fe5b602002602001015173ffffffffffffffffffffffffffffffffffffffff1673ffffffffffffffffffffffffffffffffffffffff1681526020019081526020016000206000018054600181600116156101000203166002900480601f016020809104026020016040519081016040528092919081815260200182805460018160011615610100020316600290048015610b8d5780601f10610b6257610100808354040283529160200191610b8d565b820191906000526020600020905b815481529060010190602001808311610b7057829003601f168201915b5050505050836001840181518110610ba157fe5b602002602001018190525082945050505050610bbd565b505050505b92915050565b600360205280600052604060002060009150905080600001604051806060016040529081600082018054600181600116156101000203166002900480601f016020809104026020016040519081016040528092919081815260200182805460018160011615610100020316600290048015610c7f5780601f10610c5457610100808354040283529160200191610c7f565b820191906000526020600020905b815481529060010190602001808311610c6257829003601f168201915b50505050508152602001600182015481526020016002820160009054906101000a900460ff16151515158152505090806003018054600181600116156101000203166002900480601f016020809104026020016040519081016040528092919081815260200182805460018160011615610100020316600290048015610d465780601f10610d1b57610100808354040283529160200191610d46565b820191906000526020600020905b815481529060010190602001808311610d2957829003601f168201915b5050505050908060040154905083565b6001602052806000526040600020600091509050806000018054600181600116156101000203166002900480601f016020809104026020016040519081016040528092919081815260200182805460018160011615610100020316600290048015610e025780601f10610dd757610100808354040283529160200191610e02565b820191906000526020600020905b815481529060010190602001808311610de557829003601f168201915b5050505050908060010154908060020160009054906101000a900460ff16905083565b60003411610e3257600080fd5b60058054809190600101610e4691906118dd565b5080600260003373ffffffffffffffffffffffffffffffffffffffff1673ffffffffffffffffffffffffffffffffffffffff1681526020019081526020016000206000019080519060200190610e9d92919061190f565b5081600260003373ffffffffffffffffffffffffffffffffffffffff1673ffffffffffffffffffffffffffffffffffffffff168152602001908152602001600020600101819055506000600260003373ffffffffffffffffffffffffffffffffffffffff1673ffffffffffffffffffffffffffffffffffffffff16815260200190815260200160002060020160006101000a81548160ff021916908315150217905550600260003373ffffffffffffffffffffffffffffffffffffffff1673ffffffffffffffffffffffffffffffffffffffff168152602001908152602001600020604051610f8c919061257a565b60405180910390203373ffffffffffffffffffffffffffffffffffffffff167f288c433a7e934d41cd75d10a70f62c4313350336ef7fc83372d2d788d4346dd960405160405180910390a35050565b610fe36118ba565b6000825111610ff157600080fd5b60405180606001604052808381526020016000815260200160011515815250600160003373ffffffffffffffffffffffffffffffffffffffff1673ffffffffffffffffffffffffffffffffffffffff168152602001908152602001600020600082015181600001908051906020019061106b92919061198f565b506020820151816001015560408201518160020160006101000a81548160ff021916908315150217905550905050600160003373ffffffffffffffffffffffffffffffffffffffff1673ffffffffffffffffffffffffffffffffffffffff1681526020019081526020016000206040516110e59190612563565b60405180910390203373ffffffffffffffffffffffffffffffffffffffff167fc24de5261f8eff14607134de76bea692f6b10ab7b8b21d627fa4cd6347365b7460405160405180910390a3919050565b6000801515600260008473ffffffffffffffffffffffffffffffffffffffff1673ffffffffffffffffffffffffffffffffffffffff16815260200190815260200160002060020160009054906101000a900460ff1615151461119657600080fd5b6001600260008473ffffffffffffffffffffffffffffffffffffffff1673ffffffffffffffffffffffffffffffffffffffff16815260200190815260200160002060020160006101000a81548160ff021916908315150217905550600260008373ffffffffffffffffffffffffffffffffffffffff1673ffffffffffffffffffffffffffffffffffffffff16815260200190815260200160002060010154600160003373ffffffffffffffffffffffffffffffffffffffff1673ffffffffffffffffffffffffffffffffffffffff16815260200190815260200160002060010181905550919050565b6002602052806000526040600020600091509050806000018054600181600116156101000203166002900480601f01602080910402602001604051908101604052809291908181526020018280546001816001161561010002031660029004801561132b5780601f106113005761010080835404028352916020019161132b565b820191906000526020600020905b81548152906001019060200180831161130e57829003601f168201915b5050505050908060010154908060020160009054906101000a900460ff16905083565b6005818154811061135b57fe5b9060005260206000209060030201600091509050806000018054600181600116156101000203166002900480601f0160208091040260200160405190810160405280929190818152602001828054600181600116156101000203166002900480156114075780601f106113dc57610100808354040283529160200191611407565b820191906000526020600020905b8154815290600101906020018083116113ea57829003601f168201915b5050505050908060010154908060020160009054906101000a900460ff16905083565b6006805480919060010161143e9190611a0f565b50600060066001600680549050038154811061145657fe5b90600052602060002090600602019050600160003373ffffffffffffffffffffffffffffffffffffffff1673ffffffffffffffffffffffffffffffffffffffff168152602001908152602001600020600360003373ffffffffffffffffffffffffffffffffffffffff1673ffffffffffffffffffffffffffffffffffffffff1681526020019081526020016000206000016000820181600001908054600181600116156101000203166002900461150e929190611a41565b50600182015481600101556002820160009054906101000a900460ff168160020160006101000a81548160ff02191690831515021790555090505082600360003373ffffffffffffffffffffffffffffffffffffffff1673ffffffffffffffffffffffffffffffffffffffff168152602001908152602001600020600301908051906020019061159f92919061190f565b506000600360003373ffffffffffffffffffffffffffffffffffffffff1673ffffffffffffffffffffffffffffffffffffffff1681526020019081526020016000206004018190555060008251905060008090505b8181101561179357600360003373ffffffffffffffffffffffffffffffffffffffff1673ffffffffffffffffffffffffffffffffffffffff1681526020019081526020016000206005016001600086848151811061164e57fe5b602002602001015173ffffffffffffffffffffffffffffffffffffffff1673ffffffffffffffffffffffffffffffffffffffff16815260200190815260200160002090806001815401808255809150509060018203906000526020600020906003020160009091929091909150600082018160000190805460018160011615610100020316600290046116e2929190611a41565b50600182015481600101556002820160009054906101000a900460ff168160020160006101000a81548160ff02191690831515021790555050505060016004600086848151811061172f57fe5b602002602001015173ffffffffffffffffffffffffffffffffffffffff1673ffffffffffffffffffffffffffffffffffffffff16815260200190815260200160002060006101000a81548160ff0219169083151502179055506001810190506115f4565b50600360003373ffffffffffffffffffffffffffffffffffffffff1673ffffffffffffffffffffffffffffffffffffffff1681526020019081526020016000206040516117e09190612591565b60405180910390203373ffffffffffffffffffffffffffffffffffffffff167f2ad479aa682a232eb823cb29ee3111b95087d08eaef39de86dd872278a91d72560405160405180910390a350505050565b600081600360003373ffffffffffffffffffffffffffffffffffffffff1673ffffffffffffffffffffffffffffffffffffffff1681526020019081526020016000206004016000828254019250508190555060019050919050565b604051806080016040528061189f611ac8565b81526020016060815260200160008152602001606081525090565b604051806060016040528060608152602001600081526020016000151581525090565b81548183558181111561190a576003028160030283600052602060002091820191016119099190611aeb565b5b505050565b828054600181600116156101000203166002900490600052602060002090601f016020900481019282601f1061195057805160ff191683800117855561197e565b8280016001018555821561197e579182015b8281111561197d578251825591602001919060010190611962565b5b50905061198b9190611b36565b5090565b828054600181600116156101000203166002900490600052602060002090601f016020900481019282601f106119d057805160ff19168380011785556119fe565b828001600101855582156119fe579182015b828111156119fd5782518255916020019190600101906119e2565b5b509050611a0b9190611b36565b5090565b815481835581811115611a3c57600602816006028360005260206000209182019101611a3b9190611b5b565b5b505050565b828054600181600116156101000203166002900490600052602060002090601f016020900481019282601f10611a7a5780548555611ab7565b82800160010185558215611ab757600052602060002091601f016020900482015b82811115611ab6578254825591600101919060010190611a9b565b5b509050611ac49190611b36565b5090565b604051806060016040528060608152602001600081526020016000151581525090565b611b3391905b80821115611b2f5760008082016000611b0a9190611bd5565b60018201600090556002820160006101000a81549060ff021916905550600301611af1565b5090565b90565b611b5891905b80821115611b54576000816000905550600101611b3c565b5090565b90565b611bd291905b80821115611bce57600080820160008082016000611b7f9190611bd5565b60018201600090556002820160006101000a81549060ff02191690555050600382016000611bad9190611bd5565b6004820160009055600582016000611bc59190611c1d565b50600601611b61565b5090565b90565b50805460018160011615610100020316600290046000825580601f10611bfb5750611c1a565b601f016020900490600052602060002090810190611c199190611b36565b5b50565b5080546000825560030290600052602060002090810190611c3e9190611c41565b50565b611c8991905b80821115611c855760008082016000611c609190611bd5565b60018201600090556002820160006101000a81549060ff021916905550600301611c47565b5090565b90565b600081359050611c9b81612932565b92915050565b600082601f830112611cb257600080fd5b8135611cc5611cc0826126f4565b6126c7565b91508181835260208401935060208101905083856020840282011115611cea57600080fd5b60005b83811015611d1a5781611d008882611c8c565b845260208401935060208301925050600181019050611ced565b5050505092915050565b600082601f830112611d3557600080fd5b8135611d48611d438261271c565b6126c7565b91508082526020830160208301858383011115611d6457600080fd5b611d6f83828461289e565b50505092915050565b600081359050611d8781612949565b92915050565b600060208284031215611d9f57600080fd5b6000611dad84828501611c8c565b91505092915050565b600060208284031215611dc857600080fd5b600082013567ffffffffffffffff811115611de257600080fd5b611dee84828501611d24565b91505092915050565b60008060408385031215611e0a57600080fd5b600083013567ffffffffffffffff811115611e2457600080fd5b611e3085828601611d24565b925050602083013567ffffffffffffffff811115611e4d57600080fd5b611e5985828601611ca1565b9150509250929050565b600060208284031215611e7557600080fd5b6000611e8384828501611d78565b91505092915050565b60008060408385031215611e9f57600080fd5b6000611ead85828601611d78565b925050602083013567ffffffffffffffff811115611eca57600080fd5b611ed685828601611ca1565b9150509250929050565b60008060408385031215611ef357600080fd5b6000611f0185828601611d78565b925050602083013567ffffffffffffffff811115611f1e57600080fd5b611f2a85828601611d24565b9150509250929050565b6000611f4083836120d5565b905092915050565b6000611f548383612150565b60208301905092915050565b6000611f6c838361215f565b905092915050565b6000611f8083836121d1565b905092915050565b6000611f9483836122b0565b905092915050565b6000611fa88383612350565b905092915050565b6000611fbc8383612350565b905092915050565b6000611fd08383612554565b60208301905092915050565b611fe581612856565b82525050565b6000611ff682612792565b61200081856127e5565b93508360208202850161201285612748565b8060005b8581101561204e578484038952815161202f8582611f60565b945061203a836127be565b925060208a01995050600181019050612016565b50829750879550505050505092915050565b600061206b8261279d565b61207581856127f6565b93508360208202850161208785612758565b8060005b858110156120c357848403895281516120a48582611f88565b94506120af836127cb565b925060208a0199505060018101905061208b565b50829750879550505050505092915050565b60006120e0826127a8565b6120ea8185612807565b93506120f583612768565b8060005b83811015612125578161210c8882611f9c565b9750612117836127d8565b9250506001810190506120f9565b5085935050505092915050565b61213b81612868565b82525050565b61214a81612868565b82525050565b61215981612868565b82525050565b600061216a826127b3565b6121748185612812565b93506121848185602086016128ad565b61218d81612914565b840191505092915050565b60006121a3826127b3565b6121ad8185612823565b93506121bd8185602086016128ad565b6121c681612914565b840191505092915050565b6000815460018116600081146121ee576001811461221457612258565b607f60028304166121ff8187612834565b955060ff198316865260208601935050612258565b600282046122228187612834565b955061222d8561277d565b60005b8281101561224f57815481890152600182019150602081019050612230565b80880195505050505b505092915050565b6000606083016000830151848203600086015261227d828261215f565b91505060208301516122926020860182612536565b5060408301516122a56040860182612132565b508091505092915050565b600060608301600083015184820360008601526122cd828261215f565b91505060208301516122e26020860182612536565b5060408301516122f56040860182612132565b508091505092915050565b6000606083016000830151848203600086015261231d828261215f565b91505060208301516123326020860182612536565b5060408301516123456040860182612132565b508091505092915050565b600080830160008084016123648682611f74565b95505060018401549050612377816128fa565b6123818682611fc4565b95505060028401549050612394816128e0565b61239e8682611f48565b955050849250505092915050565b600080830160008084016123c08682611f74565b955050600184015490506123d3816128fa565b6123dd8682611fc4565b955050600284015490506123f0816128e0565b6123fa8682611f48565b955050849250505092915050565b6000808301600080840161241c8682611f74565b9550506001840154905061242f816128fa565b6124398682611fc4565b9550506002840154905061244c816128e0565b6124568682611f48565b955050849250505092915050565b6000608083016000830151848203600086015261248182826122b0565b9150506020830151848203602086015261249b828261215f565b91505060408301516124b06040860182612536565b50606083015184820360608601526124c88282612060565b9150508091505092915050565b600080830160008084016124e98682611fb0565b955050600384016124fa8682611f74565b9550506004840154905061250d816128fa565b6125178682611fc4565b955050600584016125288682611f34565b955050849250505092915050565b61253f81612894565b82525050565b61254e81612894565b82525050565b61255d81612894565b82525050565b600061256f82846123ac565b915081905092915050565b60006125868284612408565b915081905092915050565b600061259d82846124d5565b915081905092915050565b60006020820190506125bd6000830184611fdc565b92915050565b600060208201905081810360008301526125dd8184611feb565b905092915050565b60006020820190506125fa6000830184612141565b92915050565b6000606082019050818103600083015261261a8186612198565b90506126296020830185612545565b6126366040830184612141565b949350505050565b600060208201905081810360008301526126588184612260565b905092915050565b6000606082019050818103600083015261267a8186612300565b9050818103602083015261268e8185612198565b905061269d6040830184612545565b949350505050565b600060208201905081810360008301526126bf8184612464565b905092915050565b6000604051905081810181811067ffffffffffffffff821117156126ea57600080fd5b8060405250919050565b600067ffffffffffffffff82111561270b57600080fd5b602082029050602081019050919050565b600067ffffffffffffffff82111561273357600080fd5b601f19601f8301169050602081019050919050565b6000819050602082019050919050565b6000819050602082019050919050565b60008190508160005260206000209050919050565b60008190508160005260206000209050919050565b600081519050919050565b600081519050919050565b600081549050919050565b600081519050919050565b6000602082019050919050565b6000602082019050919050565b6000600382019050919050565b600082825260208201905092915050565b600082825260208201905092915050565b600081905092915050565b600082825260208201905092915050565b600082825260208201905092915050565b600081905092915050565b600060ff82169050919050565b6000819050919050565b600061286182612874565b9050919050565b60008115159050919050565b600073ffffffffffffffffffffffffffffffffffffffff82169050919050565b6000819050919050565b82818337600083830152505050565b60005b838110156128cb5780820151818401526020810190506128b0565b838111156128da576000848401525b50505050565b60006128f36128ee83612925565b61283f565b9050919050565b600061290d61290883612925565b61284c565b9050919050565b6000601f19601f8301169050919050565b60008160001c9050919050565b61293b81612856565b811461294657600080fd5b50565b61295281612894565b811461295d57600080fd5b5056fea365627a7a723158200de1c08f1452dce4cb0df021ad395c396d864d8625b013c8412d1c47074ea4bc6c6578706572696d656e74616cf564736f6c63430005100040",
  "source": "pragma solidity >=0.4.22 <0.9.0;\r\npragma experimental ABIEncoderV2;\r\n\r\nimport \"./BuildCollective.sol\";\r\n\r\ncontract userProjects is BuildCollective {\r\n  struct project {\r\n     User owner;\r\n     string name;\r\n     uint256 balance;\r\n     User[] contributers;\r\n  }\r\n  struct bounty {\r\n    string name;\r\n    uint256 reward;\r\n    bool fix;\r\n  }\r\n\r\nmapping ( address => bounty) public bounties;\r\nmapping (address => project) public userprojects;\r\nmapping(address => bool) contributerExists;\r\n\r\n\r\nbounty[] public bounties_list;\r\nproject[] public projects;\r\n\r\nevent ProjectCreated(address indexed userAddress, project indexed Project);\r\n\r\n  function createProject(string memory _name, address[] memory _contributers_addresses) public {\r\n    projects.length++;\r\n    project storage p = projects[projects.length - 1];\r\n    userprojects[msg.sender].owner = users[msg.sender];\r\n    userprojects[msg.sender].name = _name;\r\n    userprojects[msg.sender].balance = 0;\r\n    uint256 length = _contributers_addresses.length;\r\n\r\n    for (uint256 i = 0; i < length; i+=1) {\r\n        userprojects[msg.sender].contributers.push(users[_contributers_addresses[i]]);\r\n        contributerExists[_contributers_addresses[i]] = true;\r\n\r\n    }\r\n    emit ProjectCreated(msg.sender, userprojects[msg.sender]);\r\n\r\n    }\r\n\r\n\r\n//create bounty\r\nevent bountyCreated(address indexed userAddress, bounty indexed Bounty);\r\n\r\nfunction CreateBounty(uint256 reward, string memory name) public payable {\r\n    require(msg.value > 0);\r\n    bounties_list.length++;\r\n    bounties[msg.sender].name = name;\r\n    bounties[msg.sender].reward = reward;\r\n    bounties[msg.sender].fix = false;\r\n    emit bountyCreated(msg.sender, bounties[msg.sender]);\r\n\r\n}\r\n\r\n//push a fix to bounty\r\nfunction Push_a_fix(address _bounty) public payable returns (bool){\r\n    require(bounties[_bounty].fix == false);\r\n    bounties[_bounty].fix = true;\r\n    users[msg.sender].balance = bounties[_bounty].reward;\r\n    \r\n}\r\n\r\n//add balance to a project\r\nfunction addBalance(uint256 amount) public returns (bool){\r\n    userprojects[msg.sender].balance += amount;\r\n    return true;\r\n  }\r\n\r\n\r\n//give money to contributers\r\nfunction GiveMoney(uint256 spons_money, address[] memory beneficiaries) public returns (string[] memory){\r\n    uint256 length = beneficiaries.length;\r\n    string[] memory sponsored;\r\n    uint256 j = 0;\r\n    for (uint256 i = 0; i < length; i+=1) {\r\n        require(contributerExists[beneficiaries[i]]);\r\n        users[beneficiaries[i]].balance = spons_money;\r\n        sponsored[j+1] = users[beneficiaries[i]].username;\r\n    return sponsored;\r\n}\r\n}\r\n\r\n\r\n//returns the current user projects\r\n  function whatAreUsersProjects() public view returns (project memory) {\r\n  return userprojects[msg.sender];\r\n}\r\n}\r\n\r\n\r\n",
  "sourcePath": "C:\\Users\\arzaigui\\build-collective\\contracts\\projet.sol",
  "compiler": {
    "name": "solc",
    "version": "0.5.16+commit.9c3226ce.Emscripten.clang"
  },
  "schemaVersion": "3.4.3",
  "updatedAt": "2021-11-28T19:42:31.126Z",
  "networkType": "ethereum",
  "devdoc": {
    "methods": {}
  },
  "userdoc": {
    "methods": {}
  }
}