{
  "contractName": "User_entreprises",
  "abi": [
    {
      "anonymous": false,
      "inputs": [
        {
          "indexed": true,
          "internalType": "address",
          "name": "userAddress",
          "type": "address"
        },
        {
          "components": [
            {
              "components": [
                {
                  "internalType": "string",
                  "name": "username",
                  "type": "string"
                },
                {
                  "internalType": "uint256",
                  "name": "balance",
                  "type": "uint256"
                },
                {
                  "internalType": "bool",
                  "name": "registered",
                  "type": "bool"
                }
              ],
              "internalType": "struct BuildCollective.User",
              "name": "owner",
              "type": "tuple"
            },
            {
              "internalType": "string",
              "name": "name",
              "type": "string"
            },
            {
              "internalType": "uint256",
              "name": "balance",
              "type": "uint256"
            },
            {
              "internalType": "bool",
              "name": "registered",
              "type": "bool"
            },
            {
              "components": [
                {
                  "internalType": "string",
                  "name": "username",
                  "type": "string"
                },
                {
                  "internalType": "uint256",
                  "name": "balance",
                  "type": "uint256"
                },
                {
                  "internalType": "bool",
                  "name": "registered",
                  "type": "bool"
                }
              ],
              "internalType": "struct BuildCollective.User[]",
              "name": "contributers",
              "type": "tuple[]"
            }
          ],
          "indexed": true,
          "internalType": "struct User_entreprises.Entreprise",
          "name": "entreprise",
          "type": "tuple"
        }
      ],
      "name": "EntrepriseCreated",
      "type": "event"
    },
    {
      "anonymous": false,
      "inputs": [
        {
          "indexed": true,
          "internalType": "address",
          "name": "userAddress",
          "type": "address"
        },
        {
          "components": [
            {
              "internalType": "string",
              "name": "username",
              "type": "string"
            },
            {
              "internalType": "uint256",
              "name": "balance",
              "type": "uint256"
            },
            {
              "internalType": "bool",
              "name": "registered",
              "type": "bool"
            }
          ],
          "indexed": true,
          "internalType": "struct BuildCollective.User",
          "name": "user",
          "type": "tuple"
        }
      ],
      "name": "UserSignedUp",
      "type": "event"
    },
    {
      "constant": true,
      "inputs": [
        {
          "internalType": "uint256",
          "name": "",
          "type": "uint256"
        }
      ],
      "name": "Entreprises",
      "outputs": [
        {
          "components": [
            {
              "internalType": "string",
              "name": "username",
              "type": "string"
            },
            {
              "internalType": "uint256",
              "name": "balance",
              "type": "uint256"
            },
            {
              "internalType": "bool",
              "name": "registered",
              "type": "bool"
            }
          ],
          "internalType": "struct BuildCollective.User",
          "name": "owner",
          "type": "tuple"
        },
        {
          "internalType": "string",
          "name": "name",
          "type": "string"
        },
        {
          "internalType": "uint256",
          "name": "balance",
          "type": "uint256"
        },
        {
          "internalType": "bool",
          "name": "registered",
          "type": "bool"
        }
      ],
      "payable": false,
      "stateMutability": "view",
      "type": "function"
    },
    {
      "constant": true,
      "inputs": [],
      "name": "owner",
      "outputs": [
        {
          "internalType": "address",
          "name": "",
          "type": "address"
        }
      ],
      "payable": false,
      "stateMutability": "view",
      "type": "function"
    },
    {
      "constant": false,
      "inputs": [
        {
          "internalType": "string",
          "name": "username",
          "type": "string"
        }
      ],
      "name": "signUp",
      "outputs": [
        {
          "components": [
            {
              "internalType": "string",
              "name": "username",
              "type": "string"
            },
            {
              "internalType": "uint256",
              "name": "balance",
              "type": "uint256"
            },
            {
              "internalType": "bool",
              "name": "registered",
              "type": "bool"
            }
          ],
          "internalType": "struct BuildCollective.User",
          "name": "",
          "type": "tuple"
        }
      ],
      "payable": false,
      "stateMutability": "nonpayable",
      "type": "function"
    },
    {
      "constant": true,
      "inputs": [
        {
          "internalType": "address",
          "name": "userAddress",
          "type": "address"
        }
      ],
      "name": "user",
      "outputs": [
        {
          "components": [
            {
              "internalType": "string",
              "name": "username",
              "type": "string"
            },
            {
              "internalType": "uint256",
              "name": "balance",
              "type": "uint256"
            },
            {
              "internalType": "bool",
              "name": "registered",
              "type": "bool"
            }
          ],
          "internalType": "struct BuildCollective.User",
          "name": "",
          "type": "tuple"
        }
      ],
      "payable": false,
      "stateMutability": "view",
      "type": "function"
    },
    {
      "constant": true,
      "inputs": [
        {
          "internalType": "address",
          "name": "",
          "type": "address"
        }
      ],
      "name": "userEntreprises",
      "outputs": [
        {
          "components": [
            {
              "internalType": "string",
              "name": "username",
              "type": "string"
            },
            {
              "internalType": "uint256",
              "name": "balance",
              "type": "uint256"
            },
            {
              "internalType": "bool",
              "name": "registered",
              "type": "bool"
            }
          ],
          "internalType": "struct BuildCollective.User",
          "name": "owner",
          "type": "tuple"
        },
        {
          "internalType": "string",
          "name": "name",
          "type": "string"
        },
        {
          "internalType": "uint256",
          "name": "balance",
          "type": "uint256"
        },
        {
          "internalType": "bool",
          "name": "registered",
          "type": "bool"
        }
      ],
      "payable": false,
      "stateMutability": "view",
      "type": "function"
    },
    {
      "constant": true,
      "inputs": [
        {
          "internalType": "address",
          "name": "",
          "type": "address"
        }
      ],
      "name": "users",
      "outputs": [
        {
          "internalType": "string",
          "name": "username",
          "type": "string"
        },
        {
          "internalType": "uint256",
          "name": "balance",
          "type": "uint256"
        },
        {
          "internalType": "bool",
          "name": "registered",
          "type": "bool"
        }
      ],
      "payable": false,
      "stateMutability": "view",
      "type": "function"
    },
    {
      "constant": true,
      "inputs": [
        {
          "internalType": "address",
          "name": "entrepriseAddress",
          "type": "address"
        }
      ],
      "name": "entreprise",
      "outputs": [
        {
          "components": [
            {
              "components": [
                {
                  "internalType": "string",
                  "name": "username",
                  "type": "string"
                },
                {
                  "internalType": "uint256",
                  "name": "balance",
                  "type": "uint256"
                },
                {
                  "internalType": "bool",
                  "name": "registered",
                  "type": "bool"
                }
              ],
              "internalType": "struct BuildCollective.User",
              "name": "owner",
              "type": "tuple"
            },
            {
              "internalType": "string",
              "name": "name",
              "type": "string"
            },
            {
              "internalType": "uint256",
              "name": "balance",
              "type": "uint256"
            },
            {
              "internalType": "bool",
              "name": "registered",
              "type": "bool"
            },
            {
              "components": [
                {
                  "internalType": "string",
                  "name": "username",
                  "type": "string"
                },
                {
                  "internalType": "uint256",
                  "name": "balance",
                  "type": "uint256"
                },
                {
                  "internalType": "bool",
                  "name": "registered",
                  "type": "bool"
                }
              ],
              "internalType": "struct BuildCollective.User[]",
              "name": "contributers",
              "type": "tuple[]"
            }
          ],
          "internalType": "struct User_entreprises.Entreprise",
          "name": "",
          "type": "tuple"
        }
      ],
      "payable": false,
      "stateMutability": "view",
      "type": "function"
    },
    {
      "constant": false,
      "inputs": [
        {
          "internalType": "string",
          "name": "_name",
          "type": "string"
        },
        {
          "internalType": "address[]",
          "name": "_contributers_addresses",
          "type": "address[]"
        }
      ],
      "name": "createEntreprise",
      "outputs": [],
      "payable": false,
      "stateMutability": "nonpayable",
      "type": "function"
    },
    {
      "constant": false,
      "inputs": [
        {
          "internalType": "uint256",
          "name": "amount",
          "type": "uint256"
        }
      ],
      "name": "addBalance",
      "outputs": [
        {
          "internalType": "bool",
          "name": "",
          "type": "bool"
        }
      ],
      "payable": false,
      "stateMutability": "nonpayable",
      "type": "function"
    },
    {
      "constant": true,
      "inputs": [],
      "name": "whatAreUsersEnterprises",
      "outputs": [
        {
          "components": [
            {
              "components": [
                {
                  "internalType": "string",
                  "name": "username",
                  "type": "string"
                },
                {
                  "internalType": "uint256",
                  "name": "balance",
                  "type": "uint256"
                },
                {
                  "internalType": "bool",
                  "name": "registered",
                  "type": "bool"
                }
              ],
              "internalType": "struct BuildCollective.User",
              "name": "owner",
              "type": "tuple"
            },
            {
              "internalType": "string",
              "name": "name",
              "type": "string"
            },
            {
              "internalType": "uint256",
              "name": "balance",
              "type": "uint256"
            },
            {
              "internalType": "bool",
              "name": "registered",
              "type": "bool"
            },
            {
              "components": [
                {
                  "internalType": "string",
                  "name": "username",
                  "type": "string"
                },
                {
                  "internalType": "uint256",
                  "name": "balance",
                  "type": "uint256"
                },
                {
                  "internalType": "bool",
                  "name": "registered",
                  "type": "bool"
                }
              ],
              "internalType": "struct BuildCollective.User[]",
              "name": "contributers",
              "type": "tuple[]"
            }
          ],
          "internalType": "struct User_entreprises.Entreprise",
          "name": "",
          "type": "tuple"
        }
      ],
      "payable": false,
      "stateMutability": "view",
      "type": "function"
    }
  ],
  "bytecode": "0x6080604052336000806101000a81548173ffffffffffffffffffffffffffffffffffffffff021916908373ffffffffffffffffffffffffffffffffffffffff16021790555034801561005057600080fd5b50612279806100606000396000f3fe608060405234801561001057600080fd5b506004361061009e5760003560e01c8063a87430ba11610066578063a87430ba14610187578063adcfb4fc146101b9578063c7189d3b146101e9578063c858c64514610207578063d91921ed146102235761009e565b806338f617c5146100a357806340f45f3d146100d657806356faba431461010657806381e7e20e146101395780638da5cb5b14610169575b600080fd5b6100bd60048036036100b89190810190611824565b610253565b6040516100cd9493929190611f83565b60405180910390f35b6100f060048036036100eb9190810190611824565b6103f9565b6040516100fd9190611f3f565b60405180910390f35b610120600480360361011b91908101906118fa565b61071a565b6040516101309493929190611f83565b60405180910390f35b610153600480360361014e9190810190611824565b6108cd565b6040516101609190611f61565b60405180910390f35b6101716109ed565b60405161017e9190611ecb565b60405180910390f35b6101a1600480360361019c9190810190611824565b610a12565b6040516101b093929190611f01565b60405180910390f35b6101d360048036036101ce919081019061184d565b610ae1565b6040516101e09190611f61565b60405180910390f35b6101f1610c3b565b6040516101fe9190611f3f565b60405180910390f35b610221600480360361021c919081019061188e565b610f5a565b005b61023d600480360361023891908101906118fa565b611328565b60405161024a9190611ee6565b60405180910390f35b600360205280600052604060002060009150905080600001604051806060016040529081600082018054600181600116156101000203166002900480601f01602080910402602001604051908101604052809291908181526020018280546001816001161561010002031660029004801561030f5780601f106102e45761010080835404028352916020019161030f565b820191906000526020600020905b8154815290600101906020018083116102f257829003601f168201915b50505050508152602001600182015481526020016002820160009054906101000a900460ff16151515158152505090806003018054600181600116156101000203166002900480601f0160208091040260200160405190810160405280929190818152602001828054600181600116156101000203166002900480156103d65780601f106103ab576101008083540402835291602001916103d6565b820191906000526020600020905b8154815290600101906020018083116103b957829003601f168201915b5050505050908060040154908060050160009054906101000a900460ff16905084565b610401611383565b600360008373ffffffffffffffffffffffffffffffffffffffff1673ffffffffffffffffffffffffffffffffffffffff1681526020019081526020016000206040518060a001604052908160008201604051806060016040529081600082018054600181600116156101000203166002900480601f0160208091040260200160405190810160405280929190818152602001828054600181600116156101000203166002900480156104f45780601f106104c9576101008083540402835291602001916104f4565b820191906000526020600020905b8154815290600101906020018083116104d757829003601f168201915b50505050508152602001600182015481526020016002820160009054906101000a900460ff1615151515815250508152602001600382018054600181600116156101000203166002900480601f0160208091040260200160405190810160405280929190818152602001828054600181600116156101000203166002900480156105bf5780601f10610594576101008083540402835291602001916105bf565b820191906000526020600020905b8154815290600101906020018083116105a257829003601f168201915b50505050508152602001600482015481526020016005820160009054906101000a900460ff1615151515815260200160068201805480602002602001604051908101604052809291908181526020016000905b8282101561070b5783829060005260206000209060030201604051806060016040529081600082018054600181600116156101000203166002900480601f0160208091040260200160405190810160405280929190818152602001828054600181600116156101000203166002900480156106ce5780601f106106a3576101008083540402835291602001916106ce565b820191906000526020600020905b8154815290600101906020018083116106b157829003601f168201915b50505050508152602001600182015481526020016002820160009054906101000a900460ff16151515158152505081526020019060010190610612565b50505050815250509050919050565b6002818154811061072757fe5b906000526020600020906007020160009150905080600001604051806060016040529081600082018054600181600116156101000203166002900480601f0160208091040260200160405190810160405280929190818152602001828054600181600116156101000203166002900480156107e35780601f106107b8576101008083540402835291602001916107e3565b820191906000526020600020905b8154815290600101906020018083116107c657829003601f168201915b50505050508152602001600182015481526020016002820160009054906101000a900460ff16151515158152505090806003018054600181600116156101000203166002900480601f0160208091040260200160405190810160405280929190818152602001828054600181600116156101000203166002900480156108aa5780601f1061087f576101008083540402835291602001916108aa565b820191906000526020600020905b81548152906001019060200180831161088d57829003601f168201915b5050505050908060040154908060050160009054906101000a900460ff16905084565b6108d56113ba565b600160008373ffffffffffffffffffffffffffffffffffffffff1673ffffffffffffffffffffffffffffffffffffffff168152602001908152602001600020604051806060016040529081600082018054600181600116156101000203166002900480601f0160208091040260200160405190810160405280929190818152602001828054600181600116156101000203166002900480156109b85780601f1061098d576101008083540402835291602001916109b8565b820191906000526020600020905b81548152906001019060200180831161099b57829003601f168201915b50505050508152602001600182015481526020016002820160009054906101000a900460ff1615151515815250509050919050565b6000809054906101000a900473ffffffffffffffffffffffffffffffffffffffff1681565b6001602052806000526040600020600091509050806000018054600181600116156101000203166002900480601f016020809104026020016040519081016040528092919081815260200182805460018160011615610100020316600290048015610abe5780601f10610a9357610100808354040283529160200191610abe565b820191906000526020600020905b815481529060010190602001808311610aa157829003601f168201915b5050505050908060010154908060020160009054906101000a900460ff16905083565b610ae96113ba565b6000825111610af757600080fd5b60405180606001604052808381526020016000815260200160011515815250600160003373ffffffffffffffffffffffffffffffffffffffff1673ffffffffffffffffffffffffffffffffffffffff1681526020019081526020016000206000820151816000019080519060200190610b719291906113dd565b506020820151816001015560408201518160020160006101000a81548160ff021916908315150217905550905050600160003373ffffffffffffffffffffffffffffffffffffffff1673ffffffffffffffffffffffffffffffffffffffff168152602001908152602001600020604051610beb9190611eb4565b60405180910390203373ffffffffffffffffffffffffffffffffffffffff167fc24de5261f8eff14607134de76bea692f6b10ab7b8b21d627fa4cd6347365b7460405160405180910390a3919050565b610c43611383565b600360003373ffffffffffffffffffffffffffffffffffffffff1673ffffffffffffffffffffffffffffffffffffffff1681526020019081526020016000206040518060a001604052908160008201604051806060016040529081600082018054600181600116156101000203166002900480601f016020809104026020016040519081016040528092919081815260200182805460018160011615610100020316600290048015610d365780601f10610d0b57610100808354040283529160200191610d36565b820191906000526020600020905b815481529060010190602001808311610d1957829003601f168201915b50505050508152602001600182015481526020016002820160009054906101000a900460ff1615151515815250508152602001600382018054600181600116156101000203166002900480601f016020809104026020016040519081016040528092919081815260200182805460018160011615610100020316600290048015610e015780601f10610dd657610100808354040283529160200191610e01565b820191906000526020600020905b815481529060010190602001808311610de457829003601f168201915b50505050508152602001600482015481526020016005820160009054906101000a900460ff1615151515815260200160068201805480602002602001604051908101604052809291908181526020016000905b82821015610f4d5783829060005260206000209060030201604051806060016040529081600082018054600181600116156101000203166002900480601f016020809104026020016040519081016040528092919081815260200182805460018160011615610100020316600290048015610f105780601f10610ee557610100808354040283529160200191610f10565b820191906000526020600020905b815481529060010190602001808311610ef357829003601f168201915b50505050508152602001600182015481526020016002820160009054906101000a900460ff16151515158152505081526020019060010190610e54565b5050505081525050905090565b60028054809190600101610f6e919061145d565b50600160003373ffffffffffffffffffffffffffffffffffffffff1673ffffffffffffffffffffffffffffffffffffffff168152602001908152602001600020600360003373ffffffffffffffffffffffffffffffffffffffff1673ffffffffffffffffffffffffffffffffffffffff1681526020019081526020016000206000016000820181600001908054600181600116156101000203166002900461101792919061148f565b50600182015481600101556002820160009054906101000a900460ff168160020160006101000a81548160ff02191690831515021790555090505081600360003373ffffffffffffffffffffffffffffffffffffffff1673ffffffffffffffffffffffffffffffffffffffff16815260200190815260200160002060030190805190602001906110a8929190611516565b506000600360003373ffffffffffffffffffffffffffffffffffffffff1673ffffffffffffffffffffffffffffffffffffffff168152602001908152602001600020600401819055506001600360003373ffffffffffffffffffffffffffffffffffffffff1673ffffffffffffffffffffffffffffffffffffffff16815260200190815260200160002060050160006101000a81548160ff02191690831515021790555060008151905060008090505b8181101561128c57600360003373ffffffffffffffffffffffffffffffffffffffff1673ffffffffffffffffffffffffffffffffffffffff168152602001908152602001600020600601600160008584815181106111b257fe5b602002602001015173ffffffffffffffffffffffffffffffffffffffff1673ffffffffffffffffffffffffffffffffffffffff168152602001908152602001600020908060018154018082558091505090600182039060005260206000209060030201600090919290919091506000820181600001908054600181600116156101000203166002900461124692919061148f565b50600182015481600101556002820160009054906101000a900460ff168160020160006101000a81548160ff021916908315150217905550505050600181019050611158565b50600360003373ffffffffffffffffffffffffffffffffffffffff1673ffffffffffffffffffffffffffffffffffffffff1681526020019081526020016000206040516112d99190611e9d565b60405180910390203373ffffffffffffffffffffffffffffffffffffffff167eab558e31b41ce37698528af12c32016d19162e69a5765c2338939c835cfa8c60405160405180910390a3505050565b600081600360003373ffffffffffffffffffffffffffffffffffffffff1673ffffffffffffffffffffffffffffffffffffffff1681526020019081526020016000206004016000828254019250508190555060019050919050565b6040518060a00160405280611396611596565b81526020016060815260200160008152602001600015158152602001606081525090565b604051806060016040528060608152602001600081526020016000151581525090565b828054600181600116156101000203166002900490600052602060002090601f016020900481019282601f1061141e57805160ff191683800117855561144c565b8280016001018555821561144c579182015b8281111561144b578251825591602001919060010190611430565b5b50905061145991906115b9565b5090565b81548183558181111561148a5760070281600702836000526020600020918201910161148991906115de565b5b505050565b828054600181600116156101000203166002900490600052602060002090601f016020900481019282601f106114c85780548555611505565b8280016001018555821561150557600052602060002091601f016020900482015b828111156115045782548255916001019190600101906114e9565b5b50905061151291906115b9565b5090565b828054600181600116156101000203166002900490600052602060002090601f016020900481019282601f1061155757805160ff1916838001178555611585565b82800160010185558215611585579182015b82811115611584578251825591602001919060010190611569565b5b50905061159291906115b9565b5090565b604051806060016040528060608152602001600081526020016000151581525090565b6115db91905b808211156115d75760008160009055506001016115bf565b5090565b90565b61166991905b8082111561166557600080820160008082016000611602919061166c565b60018201600090556002820160006101000a81549060ff02191690555050600382016000611630919061166c565b60048201600090556005820160006101000a81549060ff021916905560068201600061165c91906116b4565b506007016115e4565b5090565b90565b50805460018160011615610100020316600290046000825580601f1061169257506116b1565b601f0160209004906000526020600020908101906116b091906115b9565b5b50565b50805460008255600302906000526020600020908101906116d591906116d8565b50565b61172091905b8082111561171c57600080820160006116f7919061166c565b60018201600090556002820160006101000a81549060ff0219169055506003016116de565b5090565b90565b60008135905061173281612208565b92915050565b600082601f83011261174957600080fd5b813561175c61175782612003565b611fd6565b9150818183526020840193506020810190508385602084028201111561178157600080fd5b60005b838110156117b157816117978882611723565b845260208401935060208301925050600181019050611784565b5050505092915050565b600082601f8301126117cc57600080fd5b81356117df6117da8261202b565b611fd6565b915080825260208301602083018583830111156117fb57600080fd5b611806838284612174565b50505092915050565b60008135905061181e8161221f565b92915050565b60006020828403121561183657600080fd5b600061184484828501611723565b91505092915050565b60006020828403121561185f57600080fd5b600082013567ffffffffffffffff81111561187957600080fd5b611885848285016117bb565b91505092915050565b600080604083850312156118a157600080fd5b600083013567ffffffffffffffff8111156118bb57600080fd5b6118c7858286016117bb565b925050602083013567ffffffffffffffff8111156118e457600080fd5b6118f085828601611738565b9150509250929050565b60006020828403121561190c57600080fd5b600061191a8482850161180f565b91505092915050565b600061192f8383611a3b565b905092915050565b60006119438383611ab6565b60208301905092915050565b600061195b8383611b37565b905092915050565b600061196f8383611d18565b905092915050565b60006119838383611db8565b905092915050565b60006119978383611db8565b905092915050565b60006119ab8383611e8e565b60208301905092915050565b6119c08161212c565b82525050565b60006119d182612091565b6119db81856120cc565b9350836020820285016119ed85612057565b8060005b85811015611a295784840389528151611a0a8582611963565b9450611a15836120b2565b925060208a019950506001810190506119f1565b50829750879550505050505092915050565b6000611a468261209c565b611a5081856120dd565b9350611a5b83612067565b8060005b83811015611a8b5781611a728882611977565b9750611a7d836120bf565b925050600181019050611a5f565b5085935050505092915050565b611aa18161213e565b82525050565b611ab08161213e565b82525050565b611abf8161213e565b82525050565b6000611ad0826120a7565b611ada81856120e8565b9350611aea818560208601612183565b611af3816121ea565b840191505092915050565b6000611b09826120a7565b611b1381856120f9565b9350611b23818560208601612183565b611b2c816121ea565b840191505092915050565b600081546001811660008114611b545760018114611b7a57611bbe565b607f6002830416611b65818761210a565b955060ff198316865260208601935050611bbe565b60028204611b88818761210a565b9550611b938561207c565b60005b82811015611bb557815481890152600182019150602081019050611b96565b80880195505050505b505092915050565b600060a0830160008301518482036000860152611be38282611d18565b91505060208301518482036020860152611bfd8282611ac5565b9150506040830151611c126040860182611e70565b506060830151611c256060860182611a98565b5060808301518482036080860152611c3d82826119c6565b9150508091505092915050565b60008083016000808401611c5e868261198b565b95505060038401611c6f868261194f565b95505060048401549050611c82816121d0565b611c8c868261199f565b95505060058401549050611c9f816121b6565b611ca98682611937565b95505060068401611cba8682611923565b955050849250505092915050565b60006060830160008301518482036000860152611ce58282611ac5565b9150506020830151611cfa6020860182611e70565b506040830151611d0d6040860182611a98565b508091505092915050565b60006060830160008301518482036000860152611d358282611ac5565b9150506020830151611d4a6020860182611e70565b506040830151611d5d6040860182611a98565b508091505092915050565b60006060830160008301518482036000860152611d858282611ac5565b9150506020830151611d9a6020860182611e70565b506040830151611dad6040860182611a98565b508091505092915050565b60008083016000808401611dcc868261194f565b95505060018401549050611ddf816121d0565b611de9868261199f565b95505060028401549050611dfc816121b6565b611e068682611937565b955050849250505092915050565b60008083016000808401611e28868261194f565b95505060018401549050611e3b816121d0565b611e45868261199f565b95505060028401549050611e58816121b6565b611e628682611937565b955050849250505092915050565b611e798161216a565b82525050565b611e888161216a565b82525050565b611e978161216a565b82525050565b6000611ea98284611c4a565b915081905092915050565b6000611ec08284611e14565b915081905092915050565b6000602082019050611ee060008301846119b7565b92915050565b6000602082019050611efb6000830184611aa7565b92915050565b60006060820190508181036000830152611f1b8186611afe565b9050611f2a6020830185611e7f565b611f376040830184611aa7565b949350505050565b60006020820190508181036000830152611f598184611bc6565b905092915050565b60006020820190508181036000830152611f7b8184611cc8565b905092915050565b60006080820190508181036000830152611f9d8187611d68565b90508181036020830152611fb18186611afe565b9050611fc06040830185611e7f565b611fcd6060830184611aa7565b95945050505050565b6000604051905081810181811067ffffffffffffffff82111715611ff957600080fd5b8060405250919050565b600067ffffffffffffffff82111561201a57600080fd5b602082029050602081019050919050565b600067ffffffffffffffff82111561204257600080fd5b601f19601f8301169050602081019050919050565b6000819050602082019050919050565b60008190508160005260206000209050919050565b60008190508160005260206000209050919050565b600081519050919050565b600081549050919050565b600081519050919050565b6000602082019050919050565b6000600382019050919050565b600082825260208201905092915050565b600081905092915050565b600082825260208201905092915050565b600082825260208201905092915050565b600081905092915050565b600060ff82169050919050565b6000819050919050565b60006121378261214a565b9050919050565b60008115159050919050565b600073ffffffffffffffffffffffffffffffffffffffff82169050919050565b6000819050919050565b82818337600083830152505050565b60005b838110156121a1578082015181840152602081019050612186565b838111156121b0576000848401525b50505050565b60006121c96121c4836121fb565b612115565b9050919050565b60006121e36121de836121fb565b612122565b9050919050565b6000601f19601f8301169050919050565b60008160001c9050919050565b6122118161212c565b811461221c57600080fd5b50565b6122288161216a565b811461223357600080fd5b5056fea365627a7a723158202e2bcfcbc61c3dd807c138d9c6f0d9c6480ace1a01a1c49ef8fa26974c9f3bb26c6578706572696d656e74616cf564736f6c63430005100040",
  "source": "pragma solidity >=0.4.22 <0.9.0;\npragma experimental ABIEncoderV2;\n\nimport \"./BuildCollective.sol\";\n\n\n//the contract userenterprises inherits from BuildCollective\n// is structured as entreprise with name, owner(a user), a balace and a list (array of users) of contributers\n\ncontract User_entreprises is BuildCollective{\n  struct Entreprise {\n     User owner;\n     string name;\n     uint256 balance;\n     bool registered;\n     User[] contributers;\n  }\n\nEntreprise[] public Entreprises;\nevent EntrepriseCreated(address indexed userAddress, Entreprise indexed entreprise);\n\n\n// we map the user_address to its enerprises\nmapping (address => Entreprise) public userEntreprises;\n\n function entreprise(address entrepriseAddress) public view returns (Entreprise memory) {\n    return userEntreprises[entrepriseAddress];\n  }\n// Create an entreprise with the owner being the current user\n  function createEntreprise(string memory _name, address[] memory _contributers_addresses) public {\n    Entreprises.length++;\n    userEntreprises[msg.sender].owner = users[msg.sender];\n    userEntreprises[msg.sender].name = _name;\n    userEntreprises[msg.sender].balance = 0;\n    userEntreprises[msg.sender].registered = true;\n    uint256 length = _contributers_addresses.length;\n\n    for (uint256 i = 0; i < length; i+=1) {\n        userEntreprises[msg.sender].contributers.push(users[_contributers_addresses[i]]);\n    }\n    emit EntrepriseCreated(msg.sender, userEntreprises[msg.sender]);\n\n    }\n\n//add balance to the entreprise\n  function addBalance(uint256 amount) public returns (bool){\n    userEntreprises[msg.sender].balance += amount;\n    return true;\n  }\n//returns the current user entreprises\n  function whatAreUsersEnterprises() public view returns (Entreprise memory) {\n  return userEntreprises[msg.sender];\n}\n}\n",
  "sourcePath": "C:\\Users\\arzaigui\\Desktop\\DAAR_PROJECT_3-master\\contracts\\Entreprise.sol",
  "compiler": {
    "name": "solc",
    "version": "0.5.16+commit.9c3226ce.Emscripten.clang"
  },
  "schemaVersion": "3.4.3",
  "updatedAt": "2021-11-28T19:42:25.500Z",
  "devdoc": {
    "methods": {}
  },
  "userdoc": {
    "methods": {}
  }
}